{
  "_format": "hh-sol-artifact-1",
  "contractName": "ProjectRegistry",
  "sourceName": "contracts/ProjectRegistry.sol",
  "abi": [
    {
      "inputs": [],
      "stateMutability": "nonpayable",
      "type": "constructor"
    },
    {
      "anonymous": false,
      "inputs": [
        {
          "indexed": true,
          "internalType": "address",
          "name": "owner",
          "type": "address"
        },
        {
          "indexed": false,
          "internalType": "uint96",
          "name": "projectID",
          "type": "uint96"
        }
      ],
      "name": "MetaDataUpdated",
      "type": "event"
    },
    {
      "anonymous": false,
      "inputs": [
        {
          "indexed": true,
          "internalType": "address",
          "name": "owner",
          "type": "address"
        },
        {
          "indexed": false,
          "internalType": "uint96",
          "name": "projectID",
          "type": "uint96"
        }
      ],
      "name": "ProjectCreated",
      "type": "event"
    },
    {
      "inputs": [
        {
          "internalType": "uint96",
          "name": "projectID",
          "type": "uint96"
        },
        {
          "internalType": "address",
          "name": "newOwner",
          "type": "address"
        }
      ],
      "name": "addProjectOwner",
      "outputs": [],
      "stateMutability": "nonpayable",
      "type": "function"
    },
    {
      "inputs": [
        {
          "internalType": "address",
          "name": "recipient",
          "type": "address"
        },
        {
          "components": [
            {
              "internalType": "uint256",
              "name": "protocol",
              "type": "uint256"
            },
            {
              "internalType": "string",
              "name": "pointer",
              "type": "string"
            }
          ],
          "internalType": "struct MetaPtr",
          "name": "metadata",
          "type": "tuple"
        }
      ],
      "name": "createProject",
      "outputs": [],
      "stateMutability": "nonpayable",
      "type": "function"
    },
    {
      "inputs": [
        {
          "internalType": "uint96",
          "name": "projectID",
          "type": "uint96"
        }
      ],
      "name": "getProjectOwners",
      "outputs": [
        {
          "internalType": "address[]",
          "name": "",
          "type": "address[]"
        }
      ],
      "stateMutability": "view",
      "type": "function"
    },
    {
      "inputs": [
        {
          "internalType": "uint96",
          "name": "projectID",
          "type": "uint96"
        }
      ],
      "name": "projectOwnersCount",
      "outputs": [
        {
          "internalType": "uint256",
          "name": "",
          "type": "uint256"
        }
      ],
      "stateMutability": "view",
      "type": "function"
    },
    {
      "inputs": [
        {
          "internalType": "uint96",
          "name": "",
          "type": "uint96"
        }
      ],
      "name": "projects",
      "outputs": [
        {
          "internalType": "uint96",
          "name": "id",
          "type": "uint96"
        },
        {
          "internalType": "address",
          "name": "recipient",
          "type": "address"
        },
        {
          "components": [
            {
              "internalType": "uint256",
              "name": "protocol",
              "type": "uint256"
            },
            {
              "internalType": "string",
              "name": "pointer",
              "type": "string"
            }
          ],
          "internalType": "struct MetaPtr",
          "name": "metadata",
          "type": "tuple"
        }
      ],
      "stateMutability": "view",
      "type": "function"
    },
    {
      "inputs": [],
      "name": "projectsCount",
      "outputs": [
        {
          "internalType": "uint96",
          "name": "",
          "type": "uint96"
        }
      ],
      "stateMutability": "view",
      "type": "function"
    },
    {
      "inputs": [
        {
          "internalType": "uint96",
          "name": "",
          "type": "uint96"
        }
      ],
      "name": "projectsOwners",
      "outputs": [
        {
          "internalType": "uint256",
          "name": "count",
          "type": "uint256"
        }
      ],
      "stateMutability": "view",
      "type": "function"
    },
    {
      "inputs": [
        {
          "internalType": "uint96",
          "name": "projectID",
          "type": "uint96"
        },
        {
          "internalType": "address",
          "name": "prevOwner",
          "type": "address"
        },
        {
          "internalType": "address",
          "name": "owner",
          "type": "address"
        }
      ],
      "name": "removeProjectOwner",
      "outputs": [],
      "stateMutability": "nonpayable",
      "type": "function"
    },
    {
      "inputs": [
        {
          "internalType": "uint96",
          "name": "projectID",
          "type": "uint96"
        },
        {
          "components": [
            {
              "internalType": "uint256",
              "name": "protocol",
              "type": "uint256"
            },
            {
              "internalType": "string",
              "name": "pointer",
              "type": "string"
            }
          ],
          "internalType": "struct MetaPtr",
          "name": "metadata",
          "type": "tuple"
        }
      ],
      "name": "updateProjectMetaData",
      "outputs": [],
      "stateMutability": "nonpayable",
      "type": "function"
    }
  ],
  "bytecode": "0x608060405260016000806101000a81548173ffffffffffffffffffffffffffffffffffffffff021916908373ffffffffffffffffffffffffffffffffffffffff16021790555034801561005157600080fd5b50611e91806100616000396000f3fe608060405234801561001057600080fd5b50600436106100935760003560e01c806394a379361161006657806394a3793614610130578063957a4f0a14610162578063b8abdaba14610192578063c73b302e146101ae578063eeede023146101cc57610093565b806320f462431461009857806337b8a596146100b45780633fbd7d56146100d057806362bf01bd14610100575b600080fd5b6100b260048036038101906100ad91906115d6565b6101e8565b005b6100ce60048036038101906100c99190611653565b610378565b005b6100ea60048036038101906100e5919061162a565b61083e565b6040516100f791906119da565b60405180910390f35b61011a6004803603810190610115919061162a565b61087a565b60405161012791906119da565b60405180910390f35b61014a6004803603810190610145919061162a565b610898565b60405161015993929190611a10565b60405180910390f35b61017c6004803603810190610177919061162a565b6109a0565b6040516101899190611918565b60405180910390f35b6101ac60048036038101906101a7919061168f565b610c61565b005b6101b66110d8565b6040516101c391906119f5565b60405180910390f35b6101e660048036038101906101e191906116de565b6110f6565b005b600080601481819054906101000a90046bffffffffffffffffffffffff168092919061021390611c76565b91906101000a8154816bffffffffffffffffffffffff02191690836bffffffffffffffffffffffff1602179055509050600060016000836bffffffffffffffffffffffff166bffffffffffffffffffffffff1681526020019081526020016000209050818160000160006101000a8154816bffffffffffffffffffffffff02191690836bffffffffffffffffffffffff1602179055508381600001600c6101000a81548173ffffffffffffffffffffffffffffffffffffffff021916908373ffffffffffffffffffffffffffffffffffffffff1602179055508281600101600082015181600001556020820151816001019080519060200190610317929190611428565b50905050610324826112a6565b3373ffffffffffffffffffffffffffffffffffffffff167f72e166ff5dbc27c5d46b1d5227f92a32f1c64d7f5d615b0b69504f00cbc262948360405161036a91906119f5565b60405180910390a250505050565b81600073ffffffffffffffffffffffffffffffffffffffff1660026000836bffffffffffffffffffffffff166bffffffffffffffffffffffff16815260200190815260200160002060010160003373ffffffffffffffffffffffffffffffffffffffff1673ffffffffffffffffffffffffffffffffffffffff16815260200190815260200160002060009054906101000a900473ffffffffffffffffffffffffffffffffffffffff1673ffffffffffffffffffffffffffffffffffffffff161415610478576040517f08c379a000000000000000000000000000000000000000000000000000000000815260040161046f906119ba565b60405180910390fd5b600073ffffffffffffffffffffffffffffffffffffffff168273ffffffffffffffffffffffffffffffffffffffff1614158015610501575060008054906101000a900473ffffffffffffffffffffffffffffffffffffffff1673ffffffffffffffffffffffffffffffffffffffff168273ffffffffffffffffffffffffffffffffffffffff1614155b801561053957503073ffffffffffffffffffffffffffffffffffffffff168273ffffffffffffffffffffffffffffffffffffffff1614155b610578576040517f08c379a000000000000000000000000000000000000000000000000000000000815260040161056f9061199a565b60405180910390fd5b600060026000856bffffffffffffffffffffffff166bffffffffffffffffffffffff1681526020019081526020016000209050600073ffffffffffffffffffffffffffffffffffffffff168160010160008573ffffffffffffffffffffffffffffffffffffffff1673ffffffffffffffffffffffffffffffffffffffff16815260200190815260200160002060009054906101000a900473ffffffffffffffffffffffffffffffffffffffff1673ffffffffffffffffffffffffffffffffffffffff161461067b576040517f08c379a00000000000000000000000000000000000000000000000000000000081526004016106729061193a565b60405180910390fd5b8060010160008060009054906101000a900473ffffffffffffffffffffffffffffffffffffffff1673ffffffffffffffffffffffffffffffffffffffff1673ffffffffffffffffffffffffffffffffffffffff16815260200190815260200160002060009054906101000a900473ffffffffffffffffffffffffffffffffffffffff168160010160008573ffffffffffffffffffffffffffffffffffffffff1673ffffffffffffffffffffffffffffffffffffffff16815260200190815260200160002060006101000a81548173ffffffffffffffffffffffffffffffffffffffff021916908373ffffffffffffffffffffffffffffffffffffffff160217905550828160010160008060009054906101000a900473ffffffffffffffffffffffffffffffffffffffff1673ffffffffffffffffffffffffffffffffffffffff1673ffffffffffffffffffffffffffffffffffffffff16815260200190815260200160002060006101000a81548173ffffffffffffffffffffffffffffffffffffffff021916908373ffffffffffffffffffffffffffffffffffffffff16021790555080600001600081548092919061083390611c2d565b919050555050505050565b600060026000836bffffffffffffffffffffffff166bffffffffffffffffffffffff168152602001908152602001600020600001549050919050565b60026020528060005260406000206000915090508060000154905081565b60016020528060005260406000206000915090508060000160009054906101000a90046bffffffffffffffffffffffff169080600001600c9054906101000a900473ffffffffffffffffffffffffffffffffffffffff1690806001016040518060400160405290816000820154815260200160018201805461091990611bca565b80601f016020809104026020016040519081016040528092919081815260200182805461094590611bca565b80156109925780601f1061096757610100808354040283529160200191610992565b820191906000526020600020905b81548152906001019060200180831161097557829003601f168201915b505050505081525050905083565b6060600060026000846bffffffffffffffffffffffff166bffffffffffffffffffffffff16815260200190815260200160002090506000816000015467ffffffffffffffff811115610a1b577f4e487b7100000000000000000000000000000000000000000000000000000000600052604160045260246000fd5b604051908082528060200260200182016040528015610a495781602001602082028036833780820191505090505b5090506000808360010160008060009054906101000a900473ffffffffffffffffffffffffffffffffffffffff1673ffffffffffffffffffffffffffffffffffffffff1673ffffffffffffffffffffffffffffffffffffffff16815260200190815260200160002060009054906101000a900473ffffffffffffffffffffffffffffffffffffffff169050600073ffffffffffffffffffffffffffffffffffffffff168173ffffffffffffffffffffffffffffffffffffffff161415610b155782945050505050610c5c565b5b60008054906101000a900473ffffffffffffffffffffffffffffffffffffffff1673ffffffffffffffffffffffffffffffffffffffff168173ffffffffffffffffffffffffffffffffffffffff1614610c545780838381518110610ba3577f4e487b7100000000000000000000000000000000000000000000000000000000600052603260045260246000fd5b602002602001019073ffffffffffffffffffffffffffffffffffffffff16908173ffffffffffffffffffffffffffffffffffffffff16815250508360010160008273ffffffffffffffffffffffffffffffffffffffff1673ffffffffffffffffffffffffffffffffffffffff16815260200190815260200160002060009054906101000a900473ffffffffffffffffffffffffffffffffffffffff1690508180610c4c90611c2d565b925050610b16565b829450505050505b919050565b82600073ffffffffffffffffffffffffffffffffffffffff1660026000836bffffffffffffffffffffffff166bffffffffffffffffffffffff16815260200190815260200160002060010160003373ffffffffffffffffffffffffffffffffffffffff1673ffffffffffffffffffffffffffffffffffffffff16815260200190815260200160002060009054906101000a900473ffffffffffffffffffffffffffffffffffffffff1673ffffffffffffffffffffffffffffffffffffffff161415610d61576040517f08c379a0000000000000000000000000000000000000000000000000000000008152600401610d58906119ba565b60405180910390fd5b600073ffffffffffffffffffffffffffffffffffffffff168273ffffffffffffffffffffffffffffffffffffffff1614158015610dea575060008054906101000a900473ffffffffffffffffffffffffffffffffffffffff1673ffffffffffffffffffffffffffffffffffffffff168273ffffffffffffffffffffffffffffffffffffffff1614155b610e29576040517f08c379a0000000000000000000000000000000000000000000000000000000008152600401610e209061199a565b60405180910390fd5b600060026000866bffffffffffffffffffffffff166bffffffffffffffffffffffff16815260200190815260200160002090508273ffffffffffffffffffffffffffffffffffffffff168160010160008673ffffffffffffffffffffffffffffffffffffffff1673ffffffffffffffffffffffffffffffffffffffff16815260200190815260200160002060009054906101000a900473ffffffffffffffffffffffffffffffffffffffff1673ffffffffffffffffffffffffffffffffffffffff1614610f2b576040517f08c379a0000000000000000000000000000000000000000000000000000000008152600401610f229061197a565b60405180910390fd5b6001816000015411610f72576040517f08c379a0000000000000000000000000000000000000000000000000000000008152600401610f699061195a565b60405180910390fd5b8060010160008473ffffffffffffffffffffffffffffffffffffffff1673ffffffffffffffffffffffffffffffffffffffff16815260200190815260200160002060009054906101000a900473ffffffffffffffffffffffffffffffffffffffff168160010160008673ffffffffffffffffffffffffffffffffffffffff1673ffffffffffffffffffffffffffffffffffffffff16815260200190815260200160002060006101000a81548173ffffffffffffffffffffffffffffffffffffffff021916908373ffffffffffffffffffffffffffffffffffffffff1602179055508060010160008473ffffffffffffffffffffffffffffffffffffffff1673ffffffffffffffffffffffffffffffffffffffff16815260200190815260200160002060006101000a81549073ffffffffffffffffffffffffffffffffffffffff02191690558060000160008154809291906110cc90611ba0565b91905055505050505050565b600060149054906101000a90046bffffffffffffffffffffffff1681565b81600073ffffffffffffffffffffffffffffffffffffffff1660026000836bffffffffffffffffffffffff166bffffffffffffffffffffffff16815260200190815260200160002060010160003373ffffffffffffffffffffffffffffffffffffffff1673ffffffffffffffffffffffffffffffffffffffff16815260200190815260200160002060009054906101000a900473ffffffffffffffffffffffffffffffffffffffff1673ffffffffffffffffffffffffffffffffffffffff1614156111f6576040517f08c379a00000000000000000000000000000000000000000000000000000000081526004016111ed906119ba565b60405180910390fd5b8160016000856bffffffffffffffffffffffff166bffffffffffffffffffffffff16815260200190815260200160002060010160008201518160000155602082015181600101908051906020019061124f929190611428565b509050503373ffffffffffffffffffffffffffffffffffffffff167fa1d1e47982eaf1d8297f5665a0e5b033043ee874862c342305876aa9338c09928460405161129991906119f5565b60405180910390a2505050565b600060026000836bffffffffffffffffffffffff166bffffffffffffffffffffffff1681526020019081526020016000209050338160010160008060009054906101000a900473ffffffffffffffffffffffffffffffffffffffff1673ffffffffffffffffffffffffffffffffffffffff1673ffffffffffffffffffffffffffffffffffffffff16815260200190815260200160002060006101000a81548173ffffffffffffffffffffffffffffffffffffffff021916908373ffffffffffffffffffffffffffffffffffffffff16021790555060008054906101000a900473ffffffffffffffffffffffffffffffffffffffff168160010160003373ffffffffffffffffffffffffffffffffffffffff1673ffffffffffffffffffffffffffffffffffffffff16815260200190815260200160002060006101000a81548173ffffffffffffffffffffffffffffffffffffffff021916908373ffffffffffffffffffffffffffffffffffffffff160217905550600181600001819055505050565b82805461143490611bca565b90600052602060002090601f016020900481019282611456576000855561149d565b82601f1061146f57805160ff191683800117855561149d565b8280016001018555821561149d579182015b8281111561149c578251825591602001919060010190611481565b5b5090506114aa91906114ae565b5090565b5b808211156114c75760008160009055506001016114af565b5090565b60006114de6114d984611a73565b611a4e565b9050828152602081018484840111156114f657600080fd5b611501848285611b5e565b509392505050565b60008135905061151881611e16565b92915050565b600082601f83011261152f57600080fd5b813561153f8482602086016114cb565b91505092915050565b60006040828403121561155a57600080fd5b6115646040611a4e565b90506000611574848285016115ac565b600083015250602082013567ffffffffffffffff81111561159457600080fd5b6115a08482850161151e565b60208301525092915050565b6000813590506115bb81611e2d565b92915050565b6000813590506115d081611e44565b92915050565b600080604083850312156115e957600080fd5b60006115f785828601611509565b925050602083013567ffffffffffffffff81111561161457600080fd5b61162085828601611548565b9150509250929050565b60006020828403121561163c57600080fd5b600061164a848285016115c1565b91505092915050565b6000806040838503121561166657600080fd5b6000611674858286016115c1565b925050602061168585828601611509565b9150509250929050565b6000806000606084860312156116a457600080fd5b60006116b2868287016115c1565b93505060206116c386828701611509565b92505060406116d486828701611509565b9150509250925092565b600080604083850312156116f157600080fd5b60006116ff858286016115c1565b925050602083013567ffffffffffffffff81111561171c57600080fd5b61172885828601611548565b9150509250929050565b600061173e838361174a565b60208301905092915050565b61175381611b0a565b82525050565b61176281611b0a565b82525050565b600061177382611ab4565b61177d8185611ad7565b935061178883611aa4565b8060005b838110156117b95781516117a08882611732565b97506117ab83611aca565b92505060018101905061178c565b5085935050505092915050565b60006117d182611abf565b6117db8185611ae8565b93506117eb818560208601611b6d565b6117f481611d38565b840191505092915050565b600061180c600d83611af9565b915061181782611d49565b602082019050919050565b600061182f600c83611af9565b915061183a82611d72565b602082019050919050565b6000611852600d83611af9565b915061185d82611d9b565b602082019050919050565b6000611875600983611af9565b915061188082611dc4565b602082019050919050565b6000611898600983611af9565b91506118a382611ded565b602082019050919050565b60006040830160008301516118c660008601826118eb565b50602083015184820360208601526118de82826117c6565b9150508091505092915050565b6118f481611b3c565b82525050565b61190381611b3c565b82525050565b61191281611b46565b82525050565b600060208201905081810360008301526119328184611768565b905092915050565b60006020820190508181036000830152611953816117ff565b9050919050565b6000602082019050818103600083015261197381611822565b9050919050565b6000602082019050818103600083015261199381611845565b9050919050565b600060208201905081810360008301526119b381611868565b9050919050565b600060208201905081810360008301526119d38161188b565b9050919050565b60006020820190506119ef60008301846118fa565b92915050565b6000602082019050611a0a6000830184611909565b92915050565b6000606082019050611a256000830186611909565b611a326020830185611759565b8181036040830152611a4481846118ae565b9050949350505050565b6000611a58611a69565b9050611a648282611bfc565b919050565b6000604051905090565b600067ffffffffffffffff821115611a8e57611a8d611d09565b5b611a9782611d38565b9050602081019050919050565b6000819050602082019050919050565b600081519050919050565b600081519050919050565b6000602082019050919050565b600082825260208201905092915050565b600082825260208201905092915050565b600082825260208201905092915050565b6000611b1582611b1c565b9050919050565b600073ffffffffffffffffffffffffffffffffffffffff82169050919050565b6000819050919050565b60006bffffffffffffffffffffffff82169050919050565b82818337600083830152505050565b60005b83811015611b8b578082015181840152602081019050611b70565b83811115611b9a576000848401525b50505050565b6000611bab82611b3c565b91506000821415611bbf57611bbe611cab565b5b600182039050919050565b60006002820490506001821680611be257607f821691505b60208210811415611bf657611bf5611cda565b5b50919050565b611c0582611d38565b810181811067ffffffffffffffff82111715611c2457611c23611d09565b5b80604052505050565b6000611c3882611b3c565b91507fffffffffffffffffffffffffffffffffffffffffffffffffffffffffffffffff821415611c6b57611c6a611cab565b5b600182019050919050565b6000611c8182611b46565b91506bffffffffffffffffffffffff821415611ca057611c9f611cab565b5b600182019050919050565b7f4e487b7100000000000000000000000000000000000000000000000000000000600052601160045260246000fd5b7f4e487b7100000000000000000000000000000000000000000000000000000000600052602260045260246000fd5b7f4e487b7100000000000000000000000000000000000000000000000000000000600052604160045260246000fd5b6000601f19601f8301169050919050565b7f616c7265616479206f776e657200000000000000000000000000000000000000600082015250565b7f73696e676c65206f776e65720000000000000000000000000000000000000000600082015250565b7f62616420707265764f776e657200000000000000000000000000000000000000600082015250565b7f626164206f776e65720000000000000000000000000000000000000000000000600082015250565b7f6e6f74206f776e65720000000000000000000000000000000000000000000000600082015250565b611e1f81611b0a565b8114611e2a57600080fd5b50565b611e3681611b3c565b8114611e4157600080fd5b50565b611e4d81611b46565b8114611e5857600080fd5b5056fea2646970667358221220c47288a590bf21acb1074fa2c3f96631a5f364f37d51c416e0603014e14ec96664736f6c63430008040033",
  "linkReferences": {},
  "deployedLinkReferences": {}
}